:020000040800F2
:1000000070040020CD010008D1010008D3010008D0
:10001000D5010008D7010008D90100080000000040
:10002000000000000000000000000000DB010008EC
:10003000DD01000800000000DF010008E101000808
:10004000E3010008E3010008E3010008E301000800
:10005000E3010008E3010008E3010008E3010008F0
:10006000E3010008E3010008E3010008E3010008E0
:10007000E3010008E3010008E3010008E3010008D0
:10008000E3010008E3010008E3010008E3010008C0
:10009000E3010008E3010008E3010008E3010008B0
:1000A000E3010008E3010008E3010008E3010008A0
:1000B000E3010008E3010008E3010008E301000890
:1000C000E3010008E3010008E3010008E301000880
:1000D000E3010008E3010008E3010008E301000870
:1000E000E3010008E3010008E3010008E301000860
:1000F000E3010008E3010008E3010008E301000850
:10010000E3010008E3010008E3010008E30100083F
:10011000E3010008E3010008E3010008E30100082F
:10012000E3010008E3010008E3010008E30100081F
:1001300000F002F800F03AF80AA090E8000C8244BF
:100140008344AAF10107DA4501D100F02FF8AFF29C
:10015000090EBAE80F0013F0010F18BFFB1A43F0A5
:10016000010318472402000044020000103A24BF93
:1001700078C878C1FAD8520724BF30C830C144BF0C
:1001800004680C607047000000230024002500264E
:10019000103A28BF78C1FBD8520728BF30C148BFEA
:1001A0000B6070471FB51FBD10B510BD00F02BF8D8
:1001B0001146FFF7F7FF00F0C7F800F049F803B465
:1001C000FFF7F2FF03BC00F051F8000008480047B9
:1001D000FEE7FEE7FEE7FEE7FEE7FEE7FEE7FEE7F7
:1001E000FEE7FEE703480449024A044B704700005B
:1001F0003101000870000020700400207000002011
:10020000704770477047754600F02CF8AE46050001
:100210006946534620F00700854618B020B5FFF721
:10022000E1FFBDE820404FF000064FF000074FF01F
:1002300000084FF0000B21F00701AC46ACE8C00904
:10024000ACE8C009ACE8C009ACE8C0098D4670470D
:1002500010B50446AFF300802046BDE81040FFF71C
:10026000AEBF000000487047100000200149182070
:10027000ABBEFEE726000200704700000146114AAF
:1002800052884A434FF0E0235A6100229A611A468D
:10029000126942F001021A6100BF4FF0E0221069BA
:1002A00000F480321AB900F00102002AF5D10022D0
:1002B0004FF0E0239A611A46126922F001021A6196
:1002C00070470000000000200146114A12784A439E
:1002D0004FF0E0235A6100229A611A46126942F0F7
:1002E00001021A6100BF4FF0E022106900F4803271
:1002F0001AB900F00102002AF5D100224FF0E023E4
:100300009A611A46126922F001021A6170470000D0
:10031000000000204FF0E020006920F004004FF0C2
:10032000E02108610920074908700846007800EBC1
:100330004001C1EBC0104FF6FF7101EAC000014956
:1003400048807047000000200D49486880470D48EC
:10035000006820F470000B4908600846006840F40B
:10036000001008600BE007480C30006880F02000A7
:1003700004490C3108600248C1680A208847F2E746
:1003800000000020000C0140A8030008000000202D
:10039000100000006C010008B803000810000020E5
:1003A0006004000088010008000000001503000838
:0803B000C90200087D020008EB
:0400000508000131BD
:00000001FF
