:020000042000DA
:10000000B0840020CD010020D1010020D3010020C8
:10001000D5010020D7010020D901002000000000F8
:10002000000000000000000000000000DB010020D4
:10003000DD01002000000000DF010020E1010020C0
:10004000E3010020E3010020E3010020E3010020A0
:10005000E3010020E3010020E3010020E301002090
:10006000E3010020E3010020E3010020E301002080
:10007000E3010020E3010020E3010020E301002070
:10008000E3010020E3010020E3010020E301002060
:10009000E3010020E3010020E3010020E301002050
:1000A000E3010020E3010020E3010020E301002040
:1000B000E3010020E3010020E3010020E301002030
:1000C000E3010020E3010020E3010020E301002020
:1000D000E3010020E3010020E3010020E301002010
:1000E000E3010020E3010020E3010020E301002000
:1000F000E3010020E3010020E3010020E3010020F0
:10010000E3010020E3010020E3010020E3010020DF
:10011000E3010020E3010020E3010020E3010020CF
:10012000E3010020E3010020E3010020E3010020BF
:1001300000F002F800F03AF80AA090E8000C8244BF
:100140008344AAF10107DA4501D100F02FF8AFF29C
:10015000090EBAE80F0013F0010F18BFFB1A43F0A5
:1001600001031847DC050000FC050000103A24BF1D
:1001700078C878C1FAD8520724BF30C830C144BF0C
:1001800004680C607047000000230024002500264E
:10019000103A28BF78C1FBD8520728BF30C148BFEA
:1001A0000B6070471FB51FBD10B510BD00F02BF8D8
:1001B0001146FFF7F7FF00F073FA00F049F803B4B7
:1001C000FFF7F2FF03BC00F051F8000008480047B9
:1001D000FEE7FEE7FEE7FEE7FEE7FEE7FEE7FEE7F7
:1001E000FEE7FEE703480449024A044B704700005B
:1001F00031010020B0800020B0840020B0800020B9
:10020000704770477047754600F02CF8AE46050001
:100210006946534620F00700854618B020B5FFF721
:10022000E1FFBDE820404FF000064FF000074FF01F
:1002300000084FF0000B21F00701AC46ACE8C00904
:10024000ACE8C009ACE8C009ACE8C0098D4670470D
:1002500010B50446AFF300802046BDE81040FFF71C
:10026000AEBF0000004870475080002001491820B0
:10027000ABBEFEE72600020070470000024612B146
:100280000120254B18702448007801282FD12348DD
:10029000006801280AD02248006838B12048001DB3
:1002A000006818B11E48001F006800BB00201A4BF0
:1002B00018701A480068012801D1087015E0184824
:1002C000006810B9022008700FE01548001F006890
:1002D00010B90320087008E01148001D006810B92B
:1002E0000420087001E000200870012070470B48CE
:1002F000006878B90A48006801280BD10848001D39
:100300000068012806D10648001F0068012801D1B5
:10031000014B18700020E9E74C80002000012142C9
:100320000C01234200B53648006820F00F00344924
:1003300008600846006840F0080008600021304866
:1003400000F06AF82F48006820F470002D4908601A
:100350000846006840F4001008600521294800F0B4
:1003600061F82848001D006820F00F002549091D8C
:1003700008600846006840F0020008600821214833
:1003800000F04AF82048006820F470601E490860B8
:100390000846006840F40060086002211A4800F036
:1003A00041F81948006820F4704017490860084671
:1003B000006840F4004008600321134800F032F860
:1003C0001148006820F470200F4908600846006852
:1003D00040F40020086004210B4800F023F80A488C
:1003E000006820F47000084908600846006840F47E
:1003F000001008600521044800F014F800BD00005A
:1004000000080140000C01400018014002469068BD
:10041000C84000F001007047426901238B401A4335
:1004200042617047026901238B401A4302617047A1
:10043000C26801238B405A40C260704701220168A4
:100440000C31C1F313014FF0844303EB41110379E5
:1004500041F823207047002201680C31C1F31301D9
:100460004FF0844303EB4111037941F82320704797
:1004700001680C31C1F313014FF0844202EB4111CA
:10048000027951F8221009B9012200E00022016826
:100490000C31C1F313014FF0844303EB4111037995
:1004A00041F82320704700000848806940F00400AC
:1004B000064988610846806940F00800886108465E
:1004C000806940F0400088617047000000100240E1
:1004D00000B50B4800684FF6837108400849086072
:1004E0000020486088600846006840F0010008600D
:1004F00000F00AF84FF000600249086000BD0000FB
:100500000010024008ED00E0002100202F4A126890
:1005100042F480322D4B1A6000BF2C4A1168421CF5
:1005200090B201F4003212B9B0F5806FF5D1274ACC
:10053000126802F40032002A44D03022244B1A60A0
:100540001A46126842F010021A601A46126842F007
:1005500002021A601D4A52681C4B5A601A465268C1
:1005600042F480625A601A4652685A601A465268CB
:1005700042F400425A601A46526842F480325A608D
:100580001A4652685A601A46526842F4E0125A609B
:100590001A46126842F080721A6000BF0B4A126855
:1005A00002F00072002AF9D0084A526842F00202B2
:1005B000064B5A6000BF054A526802F00802002A42
:1005C000F9D001E000BFFEE77047000000100240D4
:1005D000002002400146114A52884A434FF0E0236E
:1005E0005A6100229A611A46126942F001021A61A8
:1005F00000BF4FF0E022106900F480321AB900F019
:100600000102002AF5D100224FF0E0239A611A4638
:10061000126922F001021A61704700000080002078
:100620000146114A12784A434FF0E0235A610022F2
:100630009A611A46126942F001021A6100BF4FF036
:10064000E022106900F480321AB900F00102002A99
:10065000F5D100224FF0E0239A611A46126922F088
:1006600001021A6170470000008000204FF0E02076
:10067000006920F004004FF0E021086109200749DB
:1006800008700846007800EB4001C1EBC0104FF63F
:10069000FF7101EAC00001494880704700800020D6
:1006A00008B52049486880471F49486880471E4967
:1006B000086880471D490868804731E01C48694642
:1006C00002680020904738B39DF80000012806D04A
:1006D00002280DD0032814D004281CD116E0154898
:1006E000016815488847134801681448884712E094
:1006F00010484168104888470E4841680F488847AD
:1007000009E00C4881680C48884704E00948816882
:100710000A48884700BF00BF0248C1680A208847CE
:10072000CCE700000080002010800020188000200E
:10073000488000203C800020348000202C80002055
:100740006007002000800020500000006C010020A5
:10075000B0070020508000206004000088010020C5
:10076000000000006D06002021060020D5050020B5
:10077000A9040020D1040020250300202504002026
:1007800019040020310400200D040020000C014059
:10079000050000000018014005000000570400207B
:1007A0003D040020710400207D02002001000000B3
:0400000520000131A5
:00000001FF
