:020000042000DA
:10000000C8840020790200207D0200207F020020A9
:1000100081020020830200208502002000000000F1
:100020000000000000000000000000008702002027
:1000300089020020000000008B0200208D020020B9
:100040008F0200208F0200208F0200208F020020EC
:100050008F0200208F0200208F0200208F020020DC
:100060008F0200208F0200208F0200208F020020CC
:100070008F0200208F0200208F0200208F020020BC
:100080008F0200208F0200208F0200208F020020AC
:100090008F0200208F0200208F0200208F0200209C
:1000A0008F0200208F0200208F0200208F0200208C
:1000B0008F0200208F0200208F0200208F0200207C
:1000C0008F0200208F0200208F0200208F0200206C
:1000D0008F0200208F0200208F0200208F0200205C
:1000E0008F0200208F0200208F0200208F0200204C
:1000F0008F0200208F0200208F0200208F0200203C
:100100008F0200208F0200208F0200208F0200202B
:100110008F0200208F0200208F0200208F0200201B
:100120008F0200208F0200208F0200208F0200200B
:1001300000F002F800F090F80AA090E8000C824469
:100140008344AAF10107DA4501D100F085F8AFF246
:10015000090EBAE80F0013F0010F18BFFB1A43F0A5
:10016000010318474824000068240000103A24BF07
:1001700078C878C1FAD8520724BF30C830C144BF0C
:1001800004680C607047000000230024002500264E
:10019000103A28BF78C1FBD8520728BF30C148BFEA
:1001A0000B6070476E2900F03581702900F077826E
:1001B000662902F07881652902F07581672902F0CD
:1001C0007281612902F0718103681B0A28BF41F026
:1001D0008001692900F0E280642900F0DF80752940
:1001E00000F0DC806F2900F00482782900F043825F
:1001F000E92900F09F81E42900F09C81F52900F0B5
:100200009981EF2900F00182F82900F04282036809
:10021000DB0928BF41F08001632900F0458773297D
:1002200000F04A87E32900F05587F32900F05A8748
:10023000002070471FB500F0A7FF04000020002138
:1002400001F03AFF401C60600020002101F01EFF19
:10025000E0601FBD10B510BD00F068FF1146FFF74C
:10026000E9FF01F0D3FE01F045F803B4FFF7F2FF18
:1002700003BC01F08DF8000008480047FEE7FEE7E8
:10028000FEE7FEE7FEE7FEE7FEE7FEE7FEE7FEE746
:1002900003480449024A044B704700003101002022
:1002A000C8800020C8840020C88000201CB50C46EF
:1002B000064B7B4469460090204600F0C4F8044693
:1002C0000020694600F0D2F820461CBDB7010000AE
:1002D00070477047704770B5044685690068C1066D
:1002E00001D5302600E02026C00707D070BDD4E934
:1002F000012130469047206A401C20626D1EF6D5D1
:1003000070BD70B5044685690078C00707D170BD1F
:10031000D4E9012120209047206A401C20626D1EF4
:10032000F6D570BD09684A0501D540B27047C905C8
:10033000FCD500B2704709684A0501D5C0B27047C4
:10034000C905FCD580B2704770B50C460546012A38
:1003500005D02878800600D5EA69002302E0012351
:1003600005E05B1C934202D2E05C0028F9D1A86949
:10037000E618C01AA861286A184428622846FFF7C0
:10038000AAFF04E0D5E9012114F8010B9047B4421B
:10039000F8D32846FFF7B5FF70BD00002DE9F04106
:1003A0000646002410687529314616A510D0FFF7BF
:1003B000B9FF002802DA404213A507E031688A0736
:1003C00001D512A502E0490704D511A5012401E0D9
:1003D000FFF7B1FF00210A2206F1240709E0B0FB74
:1003E000F2FCB0FBF2F302FB1C00303078541846EC
:1003F000491C0028F3D123462A463046BDE8F04187
:1004000000F061BA000000002D0000002B00000089
:100410002000000011680268006A530501D50870C9
:100420000AE0D30501D5088006E0130603D5C217FC
:10043000C1E9000200E008600120704701694A1C20
:1004400002610878704700B58FB0CDE90131002115
:10045000059105497944CDE903101146684600F03D
:1004600029F90FB000BD0000E5FFFFFF0A6802F8A0
:10047000010B0A60704700002DE9FF5F15468A46B0
:100480000446DFF8AC80F8440027D8E900103E4667
:10049000CDE9001010E03AF816106A4602A800F004
:1004A00025FE411C07D02178890603D5E269391859
:1004B00091420DD80744761C2078800602D5E06969
:1004C000B84205DDAE42E6DB3AF816000028E2D17C
:1004D000A069C01BA0612046FFF7FDFED8E900100F
:1004E000CDE90010002017E03AF818106A4602A87B
:1004F00000F0FCFDB0F1FF3F81460BD000250DF16F
:10050000080B05E0D4E901211BF8050090476D1C9C
:100510004D45F7D308F10100B0428046E4DB206A84
:10052000384420622046FFF7ECFEBDE8FF9F000044
:10053000262000002DE9F0418046D21D22F007025E
:100540000025D2E90002F52915A614D0011E72F18A
:10055000000106DA0023D0EB030063EB020211A6D0
:1005600008E0D8F800108B0701D50FA602E0490774
:1005700001D50EA601251146002408F1240704E048
:1005800000F05CF930323A55641C50EA0102F7D1B0
:100590002B46324621464046BDE8F04100F093B973
:1005A000000000002D0000002B00000020000000D3
:1005B00030B4002100F1240408E002F00705D2085D
:1005C000303542EA4372DB086554491C52EA0305A0
:1005D000F3D10468002310A2250707D5A40600D490
:1005E00021B1C46901230DA2641EC46130BC00F0B6
:1005F0006AB910B5044621461068FFF79CFE024612
:100600002046BDE810400023D2E7D21D22F00701AA
:10061000D1E90023CCE7000000000000300000001A
:10062000F0B40D460188090502D5214C7C4402E056
:100630001F4C7C440E34002100F1240608E002F037
:100640000F071209E75D42EA03721B097754491C40
:1006500052EA0307F3D102780023120704D5702D64
:1006600006D009B1022311342246F0BC00F02BB9A8
:1006700001231034F8E770B504460D462146106892
:10068000FFF759FE024629462046BDE87040002388
:10069000C6E7D21D22F00703D3E90023C0E70368B1
:1006A000126843F0200303600823C3610023B7E707
:1006B000881E00002DE9F05F894604464FF0000ACD
:1006C000DFF874B1FB44C0F820A02046E1688847F9
:1006D000002874D0252806D0D4E901219047206A4B
:1006E000401C2062F1E700265F462046E16888470B
:1006F0002028054607DB312D05D2781910F8200C8B
:1007000008B10643F1E7B00701D526F00406C4F8A6
:100710001CA00027C4F818A02A2D09D0284601F0F3
:100720006DFC38B304EB8708303DC8F8185019E069
:1007300059F8041B204604EB87029161E168884761
:10074000012F054618D1E069002820DA26F020069E
:100750001DE0D8F8180000EB800005EB40003038B1
:10076000C8F818002046E1688847054601F046FCB5
:100770000028EED1012F0AD02E2D08D12046E168A5
:1007800088477F1C0546022F46F02006C4DBA0697F
:10079000002803DA404246F00106A061F00701D0CC
:1007A00026F010066C2D0BD0682D09D04C2D39D0B9
:1007B0006A2D35D0742D35D07A2D33D016E038E03F
:1007C000E1682F4620468847B842054609D16C2F7C
:1007D00026D04FF48060E1680643204688470546EE
:1007E00004E06C2F1AD04FF4807006430DB3A5F1CE
:1007F0004100192802D8203546F400664A462946A9
:10080000204626604E46FFF7CDFC80B101280BD074
:10081000F61D26F0070000F1080956E74020E4E73E
:100820008020D8E70020D6E706F104094DE72846E6
:1008300052E7206ABDE8F09F181E000030B5B0F105
:100840000A024FEA900E71F100034EEA817EB0EB8E
:100850000E0061EB91014FEA101E4EEA017E10EB93
:100860000E0041EB11114FEA102E4EEA016E10EB13
:100870000E0041EB11214FEA104E4EEA014E10EBF3
:100880000E0041EB1141401841F100014FEAD00048
:1008900040EA41704FEAD10110EB80054FEA810434
:1008A00044EA907444EB01046D1944EB0404521BB8
:1008B000A3414FF0000348BF0A3200D530BD401CB1
:1008C00041F1000130BD2DE9F0470D4699469246B1
:1008D000044600F124080168880604D5E06921F087
:1008E0001001216000E00120A84201DD471B00E06B
:1008F0000027A1697A1902EB0900081AA061207883
:10090000C00602D42046FFF7E6FC002608E0D4E942
:1009100001211AF806009047206A401C761C2062CC
:100920004E45F4DB2078C0060AD52046FFF7D3FCFD
:1009300006E0D4E9012130209047206A401C206263
:10094000381EA7F10107F4DC07E0D4E9012118F80B
:1009500005009047206A401C2062281EA5F1010571
:10096000F3DC2046FFF7CDFC2078000602D50220FC
:10097000BDE8F0870120FBE770472DE9FF4F0C46EB
:100980001E464FF0FF378BB0D2E90001DDF86080E2
:100990000A908A46C1F30A5505B93D46002108462A
:1009A0004FF00000BAF1000F00F4400005DA00EB50
:1009B00080004FF4400101EA50004FEA9059B9F12C
:1009C000010F00DDB9460A9850EA4A000ED044F6FD
:1009D0001050A5F2FF3545432F14B8F1000F1ED07B
:1009E0007542291E1EDDC9F100021CE0B8F1010F9D
:1009F0004FF0000001D0302103E0F24305E0215424
:100A0000401CB042FBDB30460022002121540B99F0
:100A1000C1F80880C1E900200FB0BDE8F08FBD1B10
:100A20006D1CDEE74A4600DA694206A800F0F0FBDA
:100A300006AB93E8070003AB83E8070050460A992A
:100A400000F0ADFC8DE80700A0F500501F380090C5
:100A50000398002D0ADD42F21F014A460844002394
:100A600003A90390684600F016FF09E0A0F50050C6
:100A70004A461F38002303A90390684600F020FF70
:100A80008DE807000004000C03D04FF0FF30410850
:100A900000E01046B8F1000F03D000220092154686
:100AA0001EE0751E05D4FFF7C9FE303262556D1E7B
:100AB000F9D5B3460122084302D000227F1C04E08E
:100AC0002078302801D100227F1E002A099784D087
:100AD0001DE0112D07DAFFF7B1FE303262556D1CB3
:100AE00050EA0102F5D1084302D00098C8B10EE0E7
:100AF0000021681E05E0235C625C63542254401EA2
:100B0000491C8142F7DBAB46A81B401E0990002020
:100B100004F80B000B98099AC0F80880C0E9002B74
:100B20007AE711264FF0000857E72DE9F04F884685
:100B30000446D21D22F0070191B0D1E90001CDE9B0
:100B40000A0100F0F4FF02460B98C00F01D02D20DF
:100B500007E02068810701D52B2002E0202101EA6F
:100B6000C000032A099001D0072A05DB034641464D
:100B7000204600F00DFB0BE12078800601D5E069EE
:100B800000E00620B8F1650F814606D0B8F1660F87
:100B900018D0B8F1670F70D131E00020B9F1110F12
:100BA000009001DB112301E009F101030AAA01A968
:100BB0000CA8FFF7E2FEDDE90C70002609F1010543
:100BC000834647E001204B4600904FF000470AAAB9
:100BD00001A90CA8FFF7D1FEDDE90DB00C995D4627
:100BE000002610B909F101000D18B9EB050003D476
:100BF000C0F1FF3609F10105A5EB09002BE0B9F1C1
:100C0000010F01DA4FF001090020B9F1110F009036
:100C1000484601DD112300E003460AAA01A90CA8F9
:100C2000FFF7ABFEDDE90C704D46002683462078C9
:100C300000070AD4AB4500DA5D4601A8012D04DDAA
:100C4000411911F8011C302907D04F4502DA17F17C
:100C5000040F04DA012082460FE06D1EEEE7002F3C
:100C600002DCED1B3E4403E0781CA84200DD7D1C45
:100C7000B81B00F1010A4FF000472078000703D4A9
:100C8000AA4501DB4FF0FF3A0021B7F1004F0DF10B
:100C900043088DF8431024D002202B23002F01DAC3
:100CA0007F422D230A21021EA0F1010000DC5FB16A
:100CB00097FBF1FC97FBF1F201FB1C7C17460CF152
:100CC000300C08F801CDEEE7A8F10100037021888F
:100CD000090501D5452100E06521A0F1010800F8D2
:100CE000011C09980FA9A1EB0807FF1D00B1012005
:100CF000411901EBEA70A1693844081A401EA0614D
:100D00002078C00602D42046FFF7E5FA099828B1FA
:100D1000D4E901219047206A401C20622078C00657
:100D200022D52046FFF7D7FA1EE0002E04DBB3459C
:100D300002DD01A8805D00E03020D4E90121904768
:100D4000206A401C2062761CAAF101005FEA000ABA
:100D50000AD100F019FAC0680168405CD4E90121A9
:100D60009047206A401C2062281EA5F10105DCDCAA
:100D700007E0D4E9012118F8010B9047206A401CD4
:100D80002062381EA7F10107F3DC2046FFF7B9FA0D
:100D9000032011B041E600002DE9F04F04460D4656
:100DA000D21D22F0070089B0D0E9009748463946A5
:100DB00000F0BDFE0246F80F01D02D2307E02068A9
:100DC000810701D52B2302E0202101EAC0038DF821
:100DD00020300BB1012000E00020032A824601D020
:100DE000072A04DB2946204600F0D2F93FE12078AB
:100DF000800601D40D2500E0E569C7F30A560D2DE4
:100E000049DA00214FEA175B08464FF00000002F37
:100E100000F4400007DA00EB80004FF4400100EBE3
:100E2000D07001EA60008115012901DD4FF0FF312A
:100E300000224FEA850CBCF1180F06D31346ACF123
:100E400018004FF08052C24003E04FF4801323FAA1
:100E50000CF30CF10C0CBCF1200F04D3ACF1200C02
:100E600009FA0CF001E007FA0CF000294FF00048F5
:100E700001DD18B90FE00ED140450CD319EB020982
:100E80005F4121B9404502D19F4329EA0209BBEBEA
:100E9000175F00D0761C2088000502D57B48784477
:100EA00002E07A487844193808AA302302F80A3058
:100EB000037C0AF10101002E0AF1020A53546A462A
:100EC00002DC4FF0300101E04FF031014FF001083A
:100ED0008DF8001002D0A6F2FF3603E059EA470170
:100EE00000D06B4E002D02DC2178090704D54FF0AD
:100EF00002082E218DF80110C44600210BE0C7F333
:100F000003433F01C35C491C6D1E02F808300529EC
:100F100008F1010801DA002DF1DC00210CE000EB02
:100F20001973491C1B786D1E082902F808304FEA16
:100F3000091908F1010801DA002DF0DC21688B069F
:100F400002D516E0A8F10108E04505DD02EB080333
:100F500013F8013C302BF5D0B8F1000F09DD02EB9E
:100F6000080313F8013C2E2B03D1090701D4A8F183
:100F70000108002D05DD3E2102F808106D1E08F164
:100F80000108407C002E02F8080008F1010804DA8C
:100F90002D20764202F8080002E02B2002F808001B
:100FA0000A214FF47A70864208F101080BDB96FBA8
:100FB000F0F3303302F8083096FBF0F308F1010843
:100FC00000FB136601E0642E0CDB642096FBF0F35B
:100FD000303302F8083096FBF0F308F1010800FB0B
:100FE000136601E00A2E06DB96FBF1F0303002F8C2
:100FF000080008F1010896FBF1F001FB10603030A9
:1010000002F80800A16908F1010808EB050202EBEB
:101010000A00081AA0612078C00602D42046FFF713
:101020005AF9216A08AE01EB0A00206204E0D4E913
:10103000012116F8010B9047BAF1010AF7D2207886
:10104000C00602D52046FFF746F96E4609E016F8BD
:10105000010B3E280FD0D4E901219047206A401CA3
:101060002062B8F10108F2D22046FFF74AF909B030
:101070000320BDE8F08F206A2844206203E0D4E911
:101080000121302090476D1EEBD3F8E76216000077
:1010900002FCFFFF10B5436913B1AFF3008001E01C
:1010A000FFF752F9012010BD127800F124010A70F7
:1010B00000224A700122EDE711684FF0FF32E9E7A4
:1010C00010B5436913B1AFF3008001E0FFF7D4F925
:1010D000012010BD128800F1240182840022C28404
:1010E0000122EDE711684FF0FF32E9E770B51646CF
:1010F0000C46054600F040F8036893F8010101280A
:1011000006D0FF2C0FD8185D68B101202C7070BD7F
:10111000D3F807013246214603F207130344284659
:10112000BDE8704018474FF0FF3070BD754600F0C5
:10113000EBF8AE4605006946534620F007008546A9
:1011400018B020B5FFF7A4F8BDE820404FF0000626
:101150004FF000074FF000084FF0000B21F007019F
:10116000AC46ACE8C009ACE8C009ACE8C009ACE8E2
:10117000C0098D467047000010B500F005F8001D4D
:1011800010BD00BF350F000000487047848000206C
:101190002DE9F0411F46044603260168072A01F4A1
:1011A000006004DB08B116A505E016A503E008B150
:1011B00015A500E015A521F010002060A069C01E53
:1011C000A0610FB1401EA0612046FFF784F84FB127
:1011D000D4E9012138469047206A401C2062C01C97
:1011E000206206E0206AFAE7D4E9012115F8010B34
:1011F0009047761EF8D22046FFF783F8BDE8F081CD
:101200004E414E006E616E00494E4600696E6600AA
:101210002DE9F047814616468AB0354878440DC816
:101220008DE80D0032487844801C03AC0DC884E87A
:101230000D0041F69B300844372190FBF1F290FB02
:10124000F1F5A5F1800501FB12041B3C02D56442B7
:10125000012000E00020DFF898A080460027FA4433
:10126000AAF1BE0A0EE0E0070AD03246684607EB54
:10127000470101230AEB810100F022FB8DE8070002
:1012800064107F1C002CEED1194F7F44AE3F19E053
:10129000E80715D007EB04100DF1180A90E80E00CE
:1012A0008AE80E00C068F04201D1981908903246D1
:1012B000012306A903A800F003FB03AB83E80700A2
:1012C0006D10641C002DE3D14FF0010332466946D6
:1012D000B8F1000F03A802D000F0DDFA01E000F041
:1012E000EFFAC9E90001C9F808200AB0BDE8F087A3
:1012F0007413000010B50446AFF300802046BDE82B
:101300001040FEF7B2BF0000004870476480002024
:101310004FF0013C50F8042B51F8043B9A4221D184
:10132000A2EB0C03934313EACC1317D150F8042B10
:1013300051F8043B9A4215D1A2EB0C03934313EAF4
:10134000CC130BD150F8042B51F8043B9A4209D12D
:10135000A2EB0C03934313EACC13DBD04FF0000055
:10136000704700BFD01A01BAB1FA81F101F018013B
:1013700022FA01F0CB40C1F12001DBB2C0B2C01AA9
:101380002CFA01F3D11A914311EAC311E6D1704747
:1013900001491820ABBEFEE72600020070475FEA55
:1013A000400C08BF91F0000F4FEA8C234FEAC12296
:1013B00043EA51514FEA1C5018BF00F5F0404FEA84
:1013C000300018BF41F000415FEA6C5C00F02980FA
:1013D000BCF1FF3F08BF40F080407047130C06BFD0
:1013E00012044FF0100C4FF0000C130E04BF120249
:1013F0000CF1080C130F04BF12010CF1040C930F35
:1014000004BF92000CF1020CD30F04BF52000CF188
:10141000010C11464FF00002A0F11F00A0EB0C00E0
:10142000704711F0004F08BF704731F000413FF4A2
:10143000D5AF0B0C06BF09044FF0100C4FF0000C99
:101440000B0E04BF09020CF1080C0B0F04BF0901BD
:101450000CF1040C8B0F04BF89000CF1020CCB0FB4
:1014600004BF49000CF1010CCCF12003A0EB0C00EF
:1014700022FA03F302FA0CF241EA030100F101003F
:10148000704720F07F4C80EA030023F07F47ACEBED
:10149000070303F57C5300F0004003F1FF032DE93F
:1014A00080494FEA154B09B44FEA144325EA0B4E25
:1014B00024EA03480FF2042606EB132749083E7876
:1014C0005FEA320203FB0667C7F5000707FB06F673
:1014D0004FEA54374FEAD64606F1020607FB066C80
:1014E000CCF1005C4FEA1C472CEA074C07FB06F4E2
:1014F0000CFB06F504EB15464FEA961634BF0020A8
:101500004FF000404FEAD13706FB07FC4FEA1C4C76
:101510000CFB0BF7D21B03FB0CF761EB07010CFB79
:101520000EF7B0EB074072EB17420CFB08F734BF25
:10153000A2EB0742B2EB074261EB17414FEA0C44C2
:101540004FEA910706FB07FC4FEA1C4C0CFB0BF71C
:10155000B0EBC74072EB573203FB0CF734BFA2EB82
:10156000C742B2EBC74261EB57310CFB0EF7B0EB51
:10157000C70072EB57720CFB08F734BFA2EBC7022F
:10158000B2EBC70261EB5771039F4FEA816141EAF9
:10159000921104EBCC044FEAD1374FEA826206FB8A
:1015A00007FC42EA90124FEA80604FEA1C4C0CFBA9
:1015B0000BF7D21B03FB0CF761EB07010CFB0EF7DB
:1015C000B0EB074072EB17420CFB08F734BFA2EBFD
:1015D0000742B2EB074261EB17414FEA8C554FEAE5
:1015E000910704EB9C2406FB07FC4FEA1C4C0CFB08
:1015F0000BF7B0EBC74072EB573203FB0CF734BF6D
:10160000A2EBC742B2EBC74261EB57310CFB0EF7BE
:10161000B0EBC70072EB57720CFB08F734BFA2EBBC
:10162000C702B2EBC70261EB577115EB4C254FEACD
:10163000816141EA92114FEA82624FEAD13742EA70
:10164000901206FB07FC44F100044FEA80604FEA69
:101650001C4C0CFB0BF7D21B03FB0CF761EB0701D7
:101660000CFB0EF7B0EB074072EB17420CFB08F7D0
:1016700034BFA2EB0742B2EB074261EB174115EB17
:101680001C154FEA813141EA92414FEA823242EA27
:1016900090424FEA80304FEA0C7644F1000448EA69
:1016A00003434EEA0B484FF0000EB2EB080C71EB0F
:1016B000030724BF624639464EEB0E0E4FF0000B77
:1016C0000018524149414BEB0B0BB2EB080C71EB8C
:1016D00003077BF1000B24BF624639464EEB0E0E2A
:1016E0004FF0000B0018524149414BEB0B0BB2EB92
:1016F000080C71EB03077BF1000B24BF62463946EF
:101700004EEB0E0E51EA020718BF46F0010616EB2B
:101710000E7655F1000254F1000103D5BDE88901B0
:10172000BDE80088BDE88901BDE80048B61952410E
:1017300041EB0101A3F10103704780807F7E7D7C36
:101740007B7A7978777676757473727171706F6E53
:101750006E6D6C6C6B6A6A696868676666656464FE
:10176000636362616160605F5F5E5E5D5D5C5C5B88
:101770005B5A5A59595858575756565555555454F7
:10178000535352525251515050504F4F4F4E4E4D55
:101790004D4D4C4C4C4B4B4B4A4A4A4949494848A1
:1017A00048474747474646464545454444444443E1
:1017B00043434342424242414141002B9C4630D484
:1017C00077002BD01CB54FEA370703B44FF0100059
:1017D0004FF01001BAF1000F06D0BCF1000FDCBFD2
:1017E00040F0080040F008014FF000000FBCBDE8D9
:1017F00010400BF1010BBBF1010F08BF5FEA1707A7
:1018000022BF12F1010211F101014FF0004143F139
:10181000000300F0004043EA00007047F9D3570886
:10182000D0E746EA064613F1400F4FEA16461FDDA1
:1018300013F1200FDFBF16430A46002120335B421D
:10184000BED0C3F1200746EA064602FA07F74FEA80
:10185000164646EA0706C3F1200722FA03F201FA08
:1018600007F721FA03F14FF0000342EA0702A7E766
:1018700046EA020646EA06464FEA164646EA0106E8
:10188000BCBF46EA0646360C4FF000034FF000029C
:101890004FF0000194E72DE9804C9A46934670B4CE
:1018A00091E8380007C831EA400C48BF34EA430CDD
:1018B00003D5FFF7E6FDFFF780FFF0BCBDE8008C25
:1018C0002DE9804C9A46934670B491E8380007C8D9
:1018D00010F0804F08BF13F0804F03D100F005F8DF
:1018E000FFF76BFFF0BCBDE8008C20F07F4780EA7B
:1018F000030023F07F4C07EB0C03A3F57C5300F0AF
:101900000040A3F1FE0392F0000F00F0B38095F0C9
:10191000000F00F077802DE901494FEA11404FEAAE
:10192000144621EA004800FB06FC24EA064708FBAF
:1019300006F607FB08F800FB07F718EB06484CEB28
:10194000164C4FEA124B18EB07484FEA15464CEB82
:10195000174022EA0B4E0BFB06FC25EA06470EFB5E
:1019600006F607FB0EFE0BFB07F71EEB064E4CEBD5
:10197000164C4FF000061EEB074E4CEB174B18EBC6
:101980000B0840F1000018EB0E0B58EB000840F17B
:1019900000008F1A4FF000013CBFC943661B14BF03
:1019A000B5EB040C00213CBFC943F61B4FEA1744BA
:1019B0004EEA8E0E27EA04454FEA1C4704FB0762F5
:1019C0002CEA074C05FB07F70CFB05F604FB0CFCA7
:1019D00016EB074642EB174216EB0C4642EB1C4255
:1019E0001BEB060658EB0202414146EA9E0601D572
:1019F000BDE80189B619524141EB0101A3F1010390
:101A0000BDE801894FEA14454FEA114724EA05462B
:101A100021EA074C05FB07F406FB07F70CFB06F170
:101A200005FB0CFC11EB074144EB17444FEA12474E
:101A300011EB0C4144EB1C4422EA074C05FB07F276
:101A400006FB07F70CFB06F605FB0CFC16EB07463E
:101A500042EB174216EB0C4642EB1C456A1854F158
:101A6000000148BF7047B619524141EB0101A3F193
:101A70000103704795F0000F37D04FEA11424FEA4B
:101A8000144721EA024624EA074C02FB07F106FB51
:101A900007F70CFB06F402FB0CFC14EB074441EBCC
:101AA00017414FEA154714EB0C4441EB1C4125EA62
:101AB000074C02FB07F506FB07F70CFB06F602FBDB
:101AC0000CFC16EB074645EB174516EB0C4645EBB1
:101AD0001C42121951F1000148BF7047B61952411A
:101AE00041EB0101A3F1010370474FEA14454FEAAE
:101AF000114724EA054621EA074C05FB07F106FBDE
:101B000007F70CFB06F24FF0000605FB0CFC12EB8E
:101B1000074241EB174112EB0C4251EB1C4148BF0D
:101B20007047921841EB0101A3F10103704749008E
:101B300050EAC12018BF04204A0D18BF40F0010030
:101B400040F2FF72B2EB515F08BF40F00200012883
:101B500008BF05207047000000B51A48006820F44F
:101B60007000184908600846006840F400100860DA
:101B70000521144800F038F81348006820F470007C
:101B8000114908600846006840F40010086005210B
:101B90000D4800F029F80D48006820F0F0000B49CE
:101BA00008600846006840F0BF000860084600680A
:101BB00020F4706008600846006840F480600860A7
:101BC00000BD0000000C0140001801400408014065
:101BD00002469068C84000F0010070474269012346
:101BE0008B401A4342617047026901238B401A43BC
:101BF00002617047C26801238B405A40C26070473F
:101C0000012201680C31C1F313014FF0844303EB4F
:101C10004111037941F823207047002201680C31FB
:101C2000C1F313014FF0844303EB4111037941F8F1
:101C30002320704701680C31C1F313014FF0844237
:101C400002EB4111027951F8221009B9012200E09A
:101C5000002201680C31C1F313014FF0844303EB00
:101C60004111037941F82320704700000A48806938
:101C700040F00400084988610846806940F0080087
:101C800088610846806940F04000886108468069A4
:101C900040F48040886170470010024000B50B4856
:101CA00000684FF6837108400849086000204860CA
:101CB00088600846006840F00100086000F00AF8FB
:101CC0004FF000500249086000BD000000100240C3
:101CD00008ED00E0002100202F4A126842F4803213
:101CE0002D4B1A6000BF2C4A1168421C90B201F4BF
:101CF000003212B9B0F5806FF5D1274A126802F4AC
:101D00000032002A44D03022244B1A601A4612684E
:101D100042F010021A601A46126842F002021A607B
:101D20001D4A52681C4B5A601A46526842F480623F
:101D30005A601A4652685A601A46526842F4004283
:101D40005A601A46526842F480325A601A46526803
:101D50005A601A46526842F4E0125A601A461268F3
:101D600042F080721A6000BF0B4A126802F00072E3
:101D7000002AF9D0084A526842F00202064B5A6023
:101D800000BF054A526802F00802002AF9D001E0BB
:101D900000BFFEE770470000001002400020024034
:101DA0000146114A52884A434FF0E0235A6100220B
:101DB0009A611A46126942F001021A6100BF4FF09F
:101DC000E022106900F480321AB900F00102002A02
:101DD000F5D100224FF0E0239A611A46126922F0F1
:101DE00001021A6170470000048000200146114A78
:101DF00012784A434FF0E0235A6100229A611A4652
:101E0000126942F001021A6100BF4FF0E02210692E
:101E100000F480321AB900F00102002AF5D1002244
:101E20004FF0E0239A611A46126922F001021A610A
:101E300070470000048000204FF0E020006920F08F
:101E400004004FF0E02108610920074908700846A6
:101E5000007800EB4001C1EBC0104FF6FF7101EAC2
:101E6000C000014948807047048000202DE9F84FE8
:101E700004460D4628011E49B1FBF0FA504600F019
:101E8000B3F90746384600F08FF986B2304600F0C5
:101E9000ABF93946009000F087FA83464FF0834152
:101EA00000F0B6F9824600F07FF91FFA80F909EBDD
:101EB00006101FFA80F82068808940F00800216829
:101EC00088812068808921688881206880892168CC
:101ED00088812068008A216808822068A0F808802C
:101EE0002068808940F4005021688881BDE8F88F1F
:101EF00000A24A040FB438B5054606A80090204653
:101F0000009A0599FEF7D2F9002000900AE02078A7
:101F10002968888000BF2868008800F040000028F9
:101F2000F9D0641C20780028F1D138BC5DF814FB8E
:101F30000FB438B5044606A800902846009A0599C3
:101F4000FEF7B4F9002000900AE028782168888024
:101F500000BF2068008800F040000028F9D06D1C08
:101F600028780028F1D10D202168888000BF2068E2
:101F7000008800F040000028F9D00A2021688880FD
:101F800000BF2068008800F040000028F9D038BC6D
:101F90005DF814FB0AE00A7803689A8000BF0268C3
:101FA000128802F04002002AF9D0491C0A78002A5F
:101FB000F1D170470AE00A7803689A8000BF02688E
:101FC000128802F04002002AF9D0491C0A78002A3F
:101FD000F1D10D2203689A8000BF0268128802F0D6
:101FE0004002002AF9D00A2203689A8000BF0268E2
:101FF000128802F04002002AF9D0704730380A28CF
:1020000001D2012070470020704700001349486842
:10201000804713494868804711490868804711493B
:102020000868804710484FF4E1314268904713E058
:102030000E480078401CC0B20C49087002460A489D
:102040000BA1436998470F4881680F4888470348A8
:10205000C1684FF4FA708847EAE700000480002066
:10206000148000201C800020308000200080002090
:1020700054686520636F756E7465722069732025DE
:1020800064000000588000205080002010B5002916
:102090000AD00878002807D005487844FFF738F9B7
:1020A000002801D0002010BD0248784410BD000077
:1020B000320500002A05000010B500290AD0087872
:1020C000002807D005487844FFF722F9002801D0FE
:1020D000002010BD0248784410BD00002205000019
:1020E0001A05000090EA010F48BF81F0004100F19D
:1020F0006C81421A3CBF801A89184FEAD0524FF0C7
:102100007F4C1CEA410FA2EBD15318BF9CEA026F2F
:1021100000F03B804FF0004C4CEA00204CEA0121DB
:1021200021FA03FC10EB0C0C1ED202F1FF325FEA25
:102130001C2040EBC25038BF70471CF07F0F4FEAA5
:10214000400C18BFBCF17F4F38BF7047C3F120036C
:10215000994008BF20F00100BCF17F4F38BF7047A5
:10216000A0F1C04000F01BB94FEA3C00000A40EB70
:10217000C25028BF1CF0FF0F4FEA400CE6D018BF3A
:10218000BCF17F4F38BF7047EAE79CEA026F05D089
:1021900010EA5C0F08BF00F00040704710B500F077
:1021A000B8F800BF64FBBE3EC10DD1F19E0206DB54
:1021B0004FEA002343F0004323FA02F07047004245
:1021C00007D54FEA4001B1F1FE4F02D24FF00000B7
:1021D000704710B500F09DF84992248000207047A8
:1021E0006FEA200070470000B0FA80F310FA03F2A3
:1021F000C3F19D030AD0D90501EB1220530638BF65
:10220000704700F1010008BF20F001007047000096
:102210004FF47F0C1CEAD0121EBF1CEAD11392EAC5
:102220000C0F93EA0C0F00F0478090EA010F48BFB3
:1022300042F480724FF0004C4CEA00204CEA01213D
:1022400002EB0302A0FB0113A2F50002002918BF54
:1022500043F001035B0028BF4FEA330342EB224205
:102260005FEA132C4CEBC2502EBFBCEB436FB2F5B0
:102270007C0F70474FEA036CBCF1004F08BF20F0A1
:102280000100B2F57C0F38BF70470BD582F0FF021A
:1022900012F5803FC8BF704700F1C040D8BF00F0C2
:1022A0000040704700F5000C5FEA4C0C48BF7047D7
:1022B000B0F1C04000F073B890EA010F0CEAD113FE
:1022C00048BF42F48072624538BF634504D280EA59
:1022D000010000F00040704710B500F01AF800BF90
:1022E0008900013E00F007B800F009B85FEA410C30
:1022F0005FEA1C6C08D080EA010000F050B85FEA89
:10230000400C5FEA1C6CF6D14FF00040A0F5800055
:1023100070470EF1020E2EF0030E5EF8044B2442BD
:1023200004D44FEA4102B2F17F4F11D84FEA400383
:10233000B3F17F4F0CD80ED14FEAD07CB2F17F4F72
:102340000CEB4C0C0CF1020C08BF4CEBD17C04E004
:102350004FF0080C01E04FEAD17C0CEB4C0324FA5F
:1023600003F404F00704B4F1040C06D20EEB840C61
:10237000BDE810404CF0010C6047DFE80CF00708A6
:1023800002024FF00040A0F5800010BD0846420058
:1023900018BFD2F1807288BF00F0004010BDFF214D
:1023A00041EAD050C005704780F0004090EA010F2C
:1023B0007FF59FAE81F0004100F007B890EA010F71
:1023C00048BF81F000413FF594AE421A04D882F034
:1023D0000042A0EB020011444FEAD0524FF07F4C74
:1023E0001CEA410FA2EBD15318BF9CEA026F4AD0FE
:1023F0004FF0004C4CEA00204CEA012121FA03FC8A
:10240000B0EB0C0C0FD412F0FE0F36D05FEA4C008C
:102410001DD5001240EBC25038BF70471CF03F0F73
:1024200018BF70470BE0A2F101025FEA1C2040EBED
:10243000C25038BF70471CF07F0F18BF7047C3F100
:102440002003994014BF401E20F00100704780080F
:102450004FEA122308BF7047B0FA80FCA2EB0C02CF
:10246000CCF1280C60FA0CF093EA122F04BF00EBB9
:10247000C25070474FEAC3707047130A5FEADC101E
:1024800008BF7047F6E79CEA026F04D010EA5C0FC1
:1024900008BF0020704710B5FFF73BFF40DFF63E56
:1024A00081F000407047FEF740BBFEF775BC0000AE
:1024B0000000000000000000303132333435363780
:1024C0003839414243444546403058003031323378
:1024D0003435363738396162636465664030780078
:1024E00004000008000000000000000200010000DD
:1024F00010303132333435363738396162636465D0
:1025000066787000303132333435363738394142ED
:10251000434445465850000002400000000000A01F
:102520000000000005400000000000C8000000009E
:102530000C4000000000409C00000000194000001A
:102540000020BCBE0000000034400000BFC91B8E4C
:1025500000000004B5400000504BCFD06607E2CF2A
:10256000010000006C4100003E8251AADFEEA7345A
:1025700001000000D9420000DCB5A0E23A301F970C
:10258000FFFFFFFFB4450000FD25A0C8E9A3C14F30
:10259000FFFFFFFFFF3F0000000000800000000081
:1025A000FF3F00000000008000000000F82600202F
:1025B00000800020640000006C0100205C270020E7
:1025C0006480002064040000880100201C000000DA
:1025D00043000000F8FFFFFF0C0000000E000000A9
:1025E0000F0000002E00000010010000430000005A
:1025F000F8FFFFFF00404040404040404040414124
:1026000041414140404040404040404040404040C7
:102610004040404040050202020202020202020261
:10262000020202020220202020202020202020025E
:1026300002020202020290909090909010101010EE
:10264000101010101010101010101010101010108A
:10265000020202020202888888888888080808081E
:1026600008080808080808080808080808080808EA
:102670000202020240000000000000000000000012
:10268000000000000000000000000000000000004A
:10269000000000000000000000000000000000003A
:1026A000000000000000000000000000000000002A
:1026B000000000000000000000000000000000001A
:1026C000000000000000000000000000000000000A
:1026D00000000000000000000000000000000000FA
:1026E00000000000000000000000000000000000EA
:1026F00000000000000000000000000000000000DA
:10270000391E0020ED1D0020A11D00206D1C0020A1
:102710009D1C0020591B0020E91B0020DD1B002010
:10272000F51B0020D11B0020003801406D1E002049
:10273000951F0020B51F0020F51E0020311F00202E
:10274000000C0140050000000018014005000000D9
:0C2750001B1C0020011C0020351C002078
:0400000520000131A5
:00000001FF
