:020000040800F2
:1000000078040020CD010008D1010008D3010008C8
:10001000D5010008D7010008D90100080000000040
:10002000000000000000000000000000DB010008EC
:10003000DD01000800000000DF010008E101000808
:10004000E3010008E3010008E3010008E301000800
:10005000E3010008E3010008E3010008E3010008F0
:10006000E3010008E3010008E3010008E3010008E0
:10007000E3010008E3010008E3010008E3010008D0
:10008000E3010008E3010008E3010008E3010008C0
:10009000E3010008E3010008E3010008E3010008B0
:1000A000E3010008E3010008E3010008E3010008A0
:1000B000E3010008E3010008E3010008E301000890
:1000C000E3010008E3010008E3010008E301000880
:1000D000E3010008E3010008E3010008E301000870
:1000E000E3010008E3010008E3010008E301000860
:1000F000E3010008E3010008E3010008E301000850
:10010000E3010008E3010008E3010008E30100083F
:10011000E3010008E3010008E3010008E30100082F
:10012000E3010008E3010008E3010008E30100081F
:1001300000F002F800F03AF80AA090E8000C8244BF
:100140008344AAF10107DA4501D100F02FF8AFF29C
:10015000090EBAE80F0013F0010F18BFFB1A43F0A5
:10016000010318473C0300005C030000103A24BF61
:1001700078C878C1FAD8520724BF30C830C144BF0C
:1001800004680C607047000000230024002500264E
:10019000103A28BF78C1FBD8520728BF30C148BFEA
:1001A0000B6070471FB51FBD10B510BD00F02BF8D8
:1001B0001146FFF7F7FF00F045F900F049F803B4E6
:1001C000FFF7F2FF03BC00F051F8000008480047B9
:1001D000FEE7FEE7FEE7FEE7FEE7FEE7FEE7FEE7F7
:1001E000FEE7FEE703480449024A044B704700005B
:1001F00031010008780000207804002078000020F9
:10020000704770477047754600F02CF8AE46050001
:100210006946534620F00700854618B020B5FFF721
:10022000E1FFBDE820404FF000064FF000074FF01F
:1002300000084FF0000B21F00701AC46ACE8C00904
:10024000ACE8C009ACE8C009ACE8C0098D4670470D
:1002500010B50446AFF300802046BDE81040FFF71C
:10026000AEBF00000048704714000020014918206C
:10027000ABBEFEE7260002007047000000B50B4849
:1002800000684FF683710840084908600020486004
:1002900088600846006840F00100086000F00AF835
:1002A0004FF000600249086000BD000000100240ED
:1002B00008ED00E0002100202D4A126842F480324F
:1002C0002B4B1A6000BF2A4A1168421C90B201F4FD
:1002D000003212B9B0F5806FF5D1254A126802F4E8
:1002E0000032002A43D03022224B1A601A4612688C
:1002F00042F010021A601A46126842F002021A60B6
:100300001B4A52681A4B5A601A46526842F480627D
:100310005A601A4652685A601A46526842F40042BD
:100320005A601A46526842F480325A601A4652683D
:100330005A601A46526842F4E0125A601A4612682D
:1003400042F080721A6000BF094A126802F000721F
:10035000002AF9D0064A526842F00202044B5A6061
:1003600000BF034A526802F00802002AF9D0704721
:1003700000100240002002400146114A52884A43C0
:100380004FF0E0235A6100229A611A46126942F046
:1003900001021A6100BF4FF0E022106900F48032C0
:1003A0001AB900F00102002AF5D100224FF0E02333
:1003B0009A611A46126922F001021A617047000020
:1003C000000000200146114A12784A434FF0E02312
:1003D0005A6100229A611A46126942F001021A61BA
:1003E00000BF4FF0E022106900F480321AB900F02B
:1003F0000102002AF5D100224FF0E0239A611A464B
:10040000126922F001021A6170470000000000200A
:100410004FF0E020006920F004004FF0E021086177
:100420000920074908700846007800EB4001C1EB3D
:10043000C0104FF6FF7101EAC000014948807047C3
:100440000000002012494868804712490868804728
:100450001148806940F008000F4988610F48006822
:1004600020F470000D4908600846006840F4001050
:1004700008600CE009480C30006880F02000074953
:100480000C310860024881684FF4FA708847F1E740
:10049000000000201000002000100240000C01406D
:1004A000C004000800000020140000006C010008D7
:1004B000D40400081400002064040000880100082F
:1004C0000000000011040008C503000879030008BB
:0404D0007D020008A1
:0400000508000131BD
:00000001FF
