:020000042000DA
:10000000A8840020CD010020D1010020D3010020D0
:10001000D5010020D7010020D901002000000000F8
:10002000000000000000000000000000DB010020D4
:10003000DD01002000000000DF010020E1010020C0
:10004000E3010020E3010020E3010020E3010020A0
:10005000E3010020E3010020E3010020E301002090
:10006000E3010020E3010020E3010020E301002080
:10007000E3010020E3010020E3010020E301002070
:10008000E3010020E3010020E3010020E301002060
:10009000E3010020E3010020E3010020E301002050
:1000A000E3010020E3010020E3010020E301002040
:1000B000E3010020E3010020E3010020E301002030
:1000C000E3010020E3010020E3010020E301002020
:1000D000E3010020E3010020E3010020E301002010
:1000E000E3010020E3010020E3010020E301002000
:1000F000E3010020E3010020E3010020E3010020F0
:10010000E3010020E3010020E3010020E3010020DF
:10011000E3010020E3010020E3010020E3010020CF
:10012000E3010020E3010020E3010020E3010020BF
:1001300000F002F800F03AF80AA090E8000C8244BF
:100140008344AAF10107DA4501D100F02FF8AFF29C
:10015000090EBAE80F0013F0010F18BFFB1A43F0A5
:1001600001031847FC0300001C040000103A24BFE0
:1001700078C878C1FAD8520724BF30C830C144BF0C
:1001800004680C607047000000230024002500264E
:10019000103A28BF78C1FBD8520728BF30C148BFEA
:1001A0000B6070471FB51FBD10B510BD00F02BF8D8
:1001B0001146FFF7F7FF00F0A3F900F049F803B488
:1001C000FFF7F2FF03BC00F051F8000008480047B9
:1001D000FEE7FEE7FEE7FEE7FEE7FEE7FEE7FEE7F7
:1001E000FEE7FEE703480449024A044B704700005B
:1001F00031010020A8800020A8840020A8800020D1
:10020000704770477047754600F02CF8AE46050001
:100210006946534620F00700854618B020B5FFF721
:10022000E1FFBDE820404FF000064FF000074FF01F
:1002300000084FF0000B21F00701AC46ACE8C00904
:10024000ACE8C009ACE8C009ACE8C0098D4670470D
:1002500010B50446AFF300802046BDE81040FFF71C
:10026000AEBF0000004870474480002001491820BC
:10027000ABBEFEE726000200704700000B48006896
:1002800020F47000094908600846006840F4001036
:1002900008600748006820F47000054908600846B7
:1002A000006840F40010086070470000000C014036
:1002B00000180140426901238B401A434261704794
:1002C000026901238B401A4302617047C26801230F
:1002D0008B405A40C260704710B504462179024BEA
:1002E00020685A68904710BD1880002010B5044659
:1002F0002179024B20689A68904710BD1880002031
:1003000010B504462179024B2068DA68904710BD89
:10031000188000200548806940F008000349886182
:100320000846806940F04000886170470010024034
:1003300000B50B4800684FF6837108400849086013
:100340000020486088600846006840F001000860AE
:1003500000F00AF84FF000500249086000BD0000AC
:100360000010024008ED00E0002100202F4A126832
:1003700042F480322D4B1A6000BF2C4A1168421C97
:1003800090B201F4003212B9B0F5806FF5D1274A6E
:10039000126802F40032002A44D03022244B1A6042
:1003A0001A46126842F010021A601A46126842F0A9
:1003B00002021A601D4A52681C4B5A601A46526863
:1003C00042F480625A601A4652685A601A4652686D
:1003D00042F400425A601A46526842F480325A602F
:1003E0001A4652685A601A46526842F4E0125A603D
:1003F0001A46126842F080721A6000BF0B4A1268F7
:1004000002F00072002AF9D0084A526842F0020253
:10041000064B5A6000BF054A526802F00802002AE3
:10042000F9D001E000BFFEE7704700000010024075
:10043000002002400146114A52884A434FF0E0230F
:100440005A6100229A611A46126942F001021A6149
:1004500000BF4FF0E022106900F480321AB900F0BA
:100460000102002AF5D100224FF0E0239A611A46DA
:10047000126922F001021A6170470000008000201A
:100480000146114A12784A434FF0E0235A61002294
:100490009A611A46126942F001021A6100BF4FF0D8
:1004A000E022106900F480321AB900F00102002A3B
:1004B000F5D100224FF0E0239A611A46126922F02A
:1004C00001021A6170470000008000204FF0E02018
:1004D000006920F004004FF0E0210861092007497D
:1004E00008700846007800EB4001C1EBC0104FF6E1
:1004F000FF7101EAC0000149488070470080002078
:100500001149486880471149486880470F49086881
:1005100080470F49086880470E4801680E488847A1
:100520000C4841680D4888470CE00A4881680A4831
:10053000884708488168094888470348C1684FF4DC
:10054000FA708847F1E7000000800020108000204A
:100550001880002038800020308000202880002073
:100560008005002000800020440000006C01002075
:10057000C40500204480002064040000880100209D
:1005800000000000CD04002081040020350400207C
:1005900015030020310300207D020020C10200204D
:1005A000B5020020CD020020000C01400500000033
:1005B0000018014005000000ED020020D9020020D3
:0405C0000103002013
:0400000520000131A5
:00000001FF
