:020000042000DA
:1000000070840020CD010020D1010020D301002008
:10001000D5010020D7010020D901002000000000F8
:10002000000000000000000000000000DB010020D4
:10003000DD01002000000000DF010020E1010020C0
:10004000E3010020E3010020E3010020E3010020A0
:10005000E3010020E3010020E3010020E301002090
:10006000E3010020E3010020E3010020E301002080
:10007000E3010020E3010020E3010020E301002070
:10008000E3010020E3010020E3010020E301002060
:10009000E3010020E3010020E3010020E301002050
:1000A000E3010020E3010020E3010020E301002040
:1000B000E3010020E3010020E3010020E301002030
:1000C000E3010020E3010020E3010020E301002020
:1000D000E3010020E3010020E3010020E301002010
:1000E000E3010020E3010020E3010020E301002000
:1000F000E3010020E3010020E3010020E3010020F0
:10010000E3010020E3010020E3010020E3010020DF
:10011000E3010020E3010020E3010020E3010020CF
:10012000E3010020E3010020E3010020E3010020BF
:1001300000F002F800F03AF80AA090E8000C8244BF
:100140008344AAF10107DA4501D100F02FF8AFF29C
:10015000090EBAE80F0013F0010F18BFFB1A43F0A5
:10016000010318479C020000BC020000103A24BFA3
:1001700078C878C1FAD8520724BF30C830C144BF0C
:1001800004680C607047000000230024002500264E
:10019000103A28BF78C1FBD8520728BF30C148BFEA
:1001A0000B6070471FB51FBD10B510BD00F02BF8D8
:1001B0001146FFF7F7FF00F01FF900F049F803B40C
:1001C000FFF7F2FF03BC00F051F8000008480047B9
:1001D000FEE7FEE7FEE7FEE7FEE7FEE7FEE7FEE7F7
:1001E000FEE7FEE703480449024A044B704700005B
:1001F0003101002070800020708400207080002079
:10020000704770477047754600F02CF8AE46050001
:100210006946534620F00700854618B020B5FFF721
:10022000E1FFBDE820404FF000064FF000074FF01F
:1002300000084FF0000B21F00701AC46ACE8C00904
:10024000ACE8C009ACE8C009ACE8C0098D4670470D
:1002500010B50446AFF300802046BDE81040FFF71C
:10026000AEBF0000004870471080002001491820F0
:10027000ABBEFEE7260002007047000010B5024941
:100280000868804710BD000000800020012905D1CA
:10029000054A52690243044B5A6104E0024A52691A
:1002A0008243014B5A61704700100240012905D179
:1002B000054AD2690243044BDA6104E0024AD2697A
:1002C0008243014BDA61704700100240012905D1D9
:1002D000054A92690243044B9A6104E0024A92691A
:1002E0008243014B9A617047001002400848006841
:1002F0004FF6837108400649086000204860886016
:10030000C86008611420486100208861C861704796
:100310000010024000B5FFF7E9FF0A48006840F00E
:1003200001000849086000BF0648006800F00200AC
:100330000228F9D100F00AF84FF000500249086095
:1003400000BD00000010024008ED00E028480068F1
:1003500040F01000264908600846006840F002009E
:1003600008602448006840F480302249086000BFDB
:100370002048006800F40030B0F5003FF8D11D4877
:1003800040681C4948600846406840F48060486006
:100390000846406848600846406840F400404860AD
:1003A0000846406840F4E01048600846406840F461
:1003B000803048600846406848600846006840F061
:1003C0008070086000BF0B48006800F000700028D3
:1003D000F9D00848406840F002000649486000BF74
:1003E0000448406800F00C008028F9D070470000F5
:1003F0000020024000100240FFF740FF00BFFEE770
:100400002004002000800020100000006C0100206B
:1004100030040020108000206004000088010020CB
:10042000150300208D020020AD020020CD02002027
:0400000520000131A5
:00000001FF
