:020000042000DA
:10000000B0840020CD010020D1010020D3010020C8
:10001000D5010020D7010020D901002000000000F8
:10002000000000000000000000000000DB010020D4
:10003000DD01002000000000DF010020E1010020C0
:10004000E3010020E3010020E3010020E3010020A0
:10005000E3010020E3010020E3010020E301002090
:10006000E3010020E3010020E3010020E301002080
:10007000E3010020E3010020E3010020E301002070
:10008000E3010020E3010020E3010020E301002060
:10009000E3010020E3010020E3010020E301002050
:1000A000E3010020E3010020E3010020E301002040
:1000B000E3010020E3010020E3010020E301002030
:1000C000E3010020E3010020E3010020E301002020
:1000D000E3010020E3010020E3010020E301002010
:1000E000E3010020E3010020E3010020E301002000
:1000F000E3010020E3010020E3010020E3010020F0
:10010000E3010020E3010020E3010020E3010020DF
:10011000E3010020E3010020E3010020E3010020CF
:10012000E3010020E3010020E3010020E3010020BF
:1001300000F002F800F03AF80AA090E8000C8244BF
:100140008344AAF10107DA4501D100F02FF8AFF29C
:10015000090EBAE80F0013F0010F18BFFB1A43F0A5
:1001600001031847F005000010060000103A24BFF4
:1001700078C878C1FAD8520724BF30C830C144BF0C
:1001800004680C607047000000230024002500264E
:10019000103A28BF78C1FBD8520728BF30C148BFEA
:1001A0000B6070471FB51FBD10B510BD00F02BF8D8
:1001B0001146FFF7F7FF00F07DFA00F049F803B4AD
:1001C000FFF7F2FF03BC00F051F8000008480047B9
:1001D000FEE7FEE7FEE7FEE7FEE7FEE7FEE7FEE7F7
:1001E000FEE7FEE703480449024A044B704700005B
:1001F00031010020B0800020B0840020B0800020B9
:10020000704770477047754600F02CF8AE46050001
:100210006946534620F00700854618B020B5FFF721
:10022000E1FFBDE820404FF000064FF000074FF01F
:1002300000084FF0000B21F00701AC46ACE8C00904
:10024000ACE8C009ACE8C009ACE8C0098D4670470D
:1002500010B50446AFF300802046BDE81040FFF71C
:10026000AEBF0000004870475080002001491820B0
:10027000ABBEFEE7260002007047000070B50546E1
:100280000C4615B101203449087033480078012824
:1002900043D132480021026931489047012811D0EA
:1002A0002E48032102692F48904758B12B4804215A
:1002B00002692C48904728B1284802210269294840
:1002C000904750BB0020244908702448002102694F
:1002D00023489047012801D120701CE01F480321CA
:1002E00002692048904710B90220207013E01B4893
:1002F000022102691B48904710B9032020700AE0D0
:100300001648042102691748904710B9042020704C
:1003100001E000202070012070BD1048002102691A
:100320000F489047B0B90D48032102690D48904726
:1003300001280FD10948042102690A489047012881
:1003400008D106480221026906489047012801D1D8
:10035000014908700020DFE74C8000201880002051
:10036000000801400018014000B53648006820F040
:100370000F00344908600846006840F00800086033
:100380000021304800F06AF82F48006820F470001F
:100390002D4908600846006840F4001008600521F7
:1003A000294800F061F82848001D006820F00F007F
:1003B0002549091D08600846006840F002000860F1
:1003C0000821214800F04AF82048006820F47060B5
:1003D0001E4908600846006840F400600860022179
:1003E0001A4800F041F81948006820F47040174995
:1003F00008600846006840F4004008600321134884
:1004000000F032F81148006820F470200F490860AD
:100410000846006840F40020086004210B4800F002
:1004200023F80A48006820F470000849086008466C
:10043000006840F4001008600521044800F014F83A
:1004400000BD000000080140000C01400018014000
:1004500002469068C84000F00100704742690123DD
:100460008B401A4342617047026901238B401A4353
:1004700002617047C26801238B405A40C2607047D6
:1004800010B504462179024B20685A68904710BD88
:100490001880002010B504462179024B20689A6824
:1004A000904710BD1880002010B504462179024BFA
:1004B0002068DA68904710BD1880002008488069DD
:1004C00040F00400064988610846806940F0080051
:1004D00088610846806940F04000886170470000EC
:1004E0000010024000B50B4800684FF683710840C9
:1004F000084908600020486088600846006840F0AD
:100500000100086000F00AF84FF00060024908603E
:1005100000BD00000010024008ED00E000210020B6
:100520002F4A126842F480322D4B1A6000BF2C4AC9
:100530001168421C90B201F4003212B9B0F5806F1C
:10054000F5D1274A126802F40032002A44D0302242
:10055000244B1A601A46126842F010021A601A46BA
:10056000126842F002021A601D4A52681C4B5A601F
:100570001A46526842F480625A601A4652685A60BB
:100580001A46526842F400425A601A46526842F4CF
:1005900080325A601A4652685A601A46526842F4CB
:1005A000E0125A601A46126842F080721A6000BF68
:1005B0000B4A126802F00072002AF9D0084A526809
:1005C00042F00202064B5A6000BF054A526802F030
:1005D0000802002AF9D001E000BFFEE770470000E2
:1005E00000100240002002400146114A52884A434E
:1005F0004FF0E0235A6100229A611A46126942F0D4
:1006000001021A6100BF4FF0E022106900F480324D
:100610001AB900F00102002AF5D100224FF0E023C0
:100620009A611A46126922F001021A6170470000AD
:10063000008000200146114A12784A434FF0E0231F
:100640005A6100229A611A46126942F001021A6147
:1006500000BF4FF0E022106900F480321AB900F0B8
:100660000102002AF5D100224FF0E0239A611A46D8
:10067000126922F001021A61704700000080002018
:100680004FF0E020006920F004004FF0E021086105
:100690000920074908700846007800EB4001C1EBCB
:1006A000C0104FF6FF7101EAC00001494880704751
:1006B0000080002008B52049486880471F494868E5
:1006C00080471E49086880471D490868804731E017
:1006D0001C48694602680020904738B39DF8000026
:1006E000012806D002280DD0032814D004281CD1DC
:1006F00016E01548016815488847134801681448F2
:10070000884712E010484168104888470E48416801
:100710000F48884709E00C4881680C48884704E086
:10072000094881680A48884700BF00BF0248C1687D
:100730000A208847CCE700000080002010800020BD
:1007400018800020488000203C8000203480002059
:100750002C80002074070020008000205000000042
:100760006C010020C40700205080002060040000BD
:1007700088010020000000008106002035060020CE
:10078000E9050020BD040020E504002069030020E5
:10079000690400205D04002075040020510400203D
:1007A000000C014005000000001801400500000099
:1007B0009504002081040020A90400207D0200206F
:0407C0000100000034
:0400000520000131A5
:00000001FF
